:10008300D3EF9400EE9400400800EF1F70F21E803F
:02009300EF225A
:100003007DC87C00E5B020E6097580FDC290C291F1
:1000130080F2E5B020E507C2907580FE800AE5B066
:1000230020E705D2907580FB20B01CC3ED9490ECC3
:10003300648094815009ED2401FFE43CFE80047E3A
:10004300017F90AC06AD0720B11DD3ED9400EC64A5
:10005300809480400AED24FFFFEC34FFFE80047E91
:10006300007F00AC06AD07D291AF05AE041200834A
:10007300C291C374909DFF74019CFE12008380841F
:0300000002009566
:0C009500787FE4F6D8FD758107020003B7
:00000001FF
